:020000040800F2
:10000000005000205D040008A5040008A5040008B5
:10001000A5040008A5040008A504000800000000CD
:10002000000000000000000000000000A50400081F
:10003000A504000800000000A5040008F90300085A
:10004000A5040008A5040008A5040008A5040008EC
:10005000A5040008A5040008A5040008A5040008DC
:10006000A5040008A5040008A5040008A5040008CC
:10007000A5040008A5040008A5040008A5040008BC
:10008000A5040008A5040008A5040008A5040008AC
:10009000A5040008A5040008A5040008A50400089C
:1000A000A5040008A5040008A5040008A50400088C
:1000B000A5040008A5040008A5040008A50400087C
:1000C000A5040008A5040008A5040008A50400086C
:1000D000A5040008A5040008A5040008A50400085C
:1000E000A5040008A5040008A504000800000000FD
:1000F0000000000000000000000000000000000000
:0C01000000000000000000005FF808F1A3
:10010C0010B5054C237833B9044B13B10448AFF345
:10011C0000800123237010BD0000002000000000AF
:10012C00F004000808B5034B1BB103490348AFF3B7
:10013C00008008BD0000000004000020F00400084E
:10014C0080B500AF00F02AF800F04EF800F01CF972
:10015C0000F0FEF800F0E6F80F4B4FF400421A6185
:10016C000D4B08221A610C4B10221A614FF4967039
:10017C0000F054F9084B4FF000421A61064B4FF453
:10018C0000221A61044B4FF480121A614FF49670DE
:10019C0000F044F9DEE700BF0008014080B400AF76
:1001AC000E4B9B690D4A43F0040393610B4B9B6907
:1001BC000A4A43F001039361094B4FF000725A60F5
:1001CC00084B4FF4B0329A61064B4FF4C0429A611F
:1001DC00044B9B6900BFBD4680BC704700100240B9
:1001EC00000001400008014080B400AF4B4B1B687D
:1001FC004A4A43F48033136000BF484B1B6803F03A
:10020C000203002BF9D0454B1B68444A43F480335E
:10021C00136000BF414B1B6803F40033002BF9D073
:10022C003E4B1B683D4A23F4802313603B4B1B68F9
:10023C003A4A43F400231360384B5B6823F0030302
:10024C00364A43F002035360344B5B6823F00C03D3
:10025C00324A43F008035360304B5B682F4A23F05B
:10026C00F00353602E4B1B6823F007032C4A43F01A
:10027C00040313602A4B1B68294A43F010031360D4
:10028C00274B1B68264A43F020031360234B5B6803
:10029C0023F4E063214A43F4806353601F4B5B6893
:1002AC001E4A23F4605353601C4B5B6823F4404399
:1002BC001A4A43F400435360184B5B68174A43F4E3
:1002CC0080335360154B5B68144A23F4003353603E
:1002DC00124B5B6823F47013104A43F4E013536021
:1002EC000E4B5B680D4A23F4800353600B4B5B6829
:1002FC000A4A43F0E0635360084B1B68074A43F01B
:10030C008073136000BF054B1B6803F00073002B58
:10031C00F9D000BF00BFBD4680BC70470010024042
:10032C000020024080B500AF084B4FF400521A6118
:10033C004FF4FA7000F072F8044B4FF000521A614F
:10034C004FF4FA7000F06AF800BF80BD0010014055
:10035C0080B400AF0A4B9B69094A43F010039361C8
:10036C00084B5B68074A23F440035360054B5B68FA
:10037C00044A43F44013536000BFBD4680BC704731
:10038C00001002400010014080B400AF154B1B68F8
:10039C00144A23F001031360124B1B68114A43F0FB
:1003AC00020313600F4B1B680E4A43F004031360E7
:1003BC000C4B5B6803F07F420A490B4B13434B60B9
:1003CC00084B5B6803F07F420649074B13434B60B5
:1003DC00044B1B68034A43F00103136000BFBD4686
:1003EC0080BC704710E000E03F19010080B400AF02
:1003FC00084B1B680133074A1360074B1B68002B23
:10040C0004D0054B1B68013B034A136000BFBD467B
:10041C0080BC70471C0000202000002080B483B0FA
:10042C0000AF7860064A7B68136000BF044B1B6802
:10043C00002BFBD100BF00BF0C37BD4680BC704702
:10044C002000002080B400AF00BFBD4680BC7047C8
:10045C000C480D490D4A002302E0D458C450043313
:10046C00C4188C42F9D30A4A0A4C002301E01360E9
:10047C000432A242FBD3FFF7E5FF00F00FF8FFF7C1
:10048C005FFE7047000000200000002010050008EF
:10049C000000002024000020FEE7000070B50026BC
:1004AC000C4D0D4C641BA410A64209D100F01AF897
:1004BC0000260A4D0A4C641BA410A64205D170BD3F
:1004CC0055F8043B98470136EEE755F8043B98473E
:1004DC000136F2E7080500080805000808050008C1
:1004EC000C050008F8B500BFF8BC08BC9E46704768
:0C04FC00F8B500BFF8BC08BC9E46704775
:0405080031010008B5
:04050C000D010008D5
:040000050800045D8E
:00000001FF
